:100000000C943A000C9457000C9457000C94570031
:100010000C9457000C9457000C9457000C94570004
:100020000C9457000C9457000C9457000C945700F4
:100030000C9457000C9457000C9457000C945700E4
:100040000C9457000C9457000C9457000C945700D4
:100050000C9457000C9457000C9457000C945700C4
:100060000C9457000C9457000C9457000C945700B4
:100070000C94570011241FBECFEFD4E0DEBFCDBFDC
:1000800011E0A0E0B1E0E4E9F6E002C005900D92D5
:10009000AA32B107D9F721E0AAE2B1E001C01D926E
:1000A000A933B207E1F70E94F6010C9448030C94BF
:1000B000000068170CF4682F862F089568170CF459
:1000C000862F0895E1E6F0E080E880831082A8950D
:1000D00084B7877F84BFE0E6F0E080818861808319
:1000E000108208959C01FC01FF2784A1832B84A327
:1000F00095A1892F832B85A381E00895CF93DF936A
:10010000C1E1D1E0899199910E94720081E0CF31E3
:10011000D807C1F783E090E40E94720080E090E885
:100120000E94720083E090E10E94720083E090E8F8
:100130000E94720083E090E2DF91CF910C947200F4
:10014000E0912A01F0E0EE0FFF1FE95FFE4F2081F2
:100150003181F901FF2795A1932B95A3E1E1F1E00E
:1001600097E020813181D901BB2795962C919597F5
:1001700080FF03C03095232301C0232B95962C9339
:100180008695915032969111ECCFE62FF0E0EE0F6C
:10019000FF1FE95FFE4F80819181FC01FF2785A150
:1001A0009095892385A360932A0108956230710593
:1001B00019F170F46130710559F5FC01FF2724A194
:1001C000392F3095922F932394A385A183231DC0AB
:1001D0006330710541F064307105D1F4FC01FF27F3
:1001E00084A1892B0FC0FC01FF2784A1892B84A344
:1001F00085A19095892309C0FC01FF2784A1292F9F
:100200002095822384A385A1892B85A381E008956D
:1002100080E00895E82FF0E0EE0FFF1FE55DFE4F50
:100220008081882321F0918181E0892702C080E0CC
:1002300090E081700895E82FF0E0EE0FFF1FE55D7C
:10024000FE4F8081811102C0818102C080E090E078
:1002500081700895E82FF0E0EE0FFF1FE55DFE4F7F
:1002600080810895E82FF0E0EE0FFF1FE55DFE4F5F
:10027000908181E0892708957F928F929F92AF921B
:10028000BF92CF92DF92EF92FF920F931F93CF9383
:10029000DF93CBE2D1E05FE1C52E51E0D52E66E0E1
:1002A000762E88818983F601019111916F015801A1
:1002B000BB24F50124A1E12EFF2485A190E08E212D
:1002C0009F2130E02E213F21232B31F0892B51F447
:1002D00033E0832E912C0DC0892B41F48824839424
:1002E000912C07C094E0892E912C03C082E0882EC7
:1002F000912C64E070E0C8010E94D60062E070E0DA
:10030000C8010E94D600872D8A95F1F7F50183A1D7
:1003100090E0E822F92281E0EF2809F080E088836C
:10032000B401C8010E94D6002296F1E0C533DF0770
:1003300009F0B7CFDF91CF911F910F91FF90EF9010
:10034000DF90CF90BF90AF909F908F907F90089557
:100350000895CF93DF93EC010E94D3019E0140E00A
:1003600050E062E17AE780E090E00E947C02309306
:10037000380120933701DF91CF91089580913501A5
:10038000909136010E94E2012091350130913601B1
:100390008091370190913801820F931F909336011D
:1003A0008093350108951092800084E0809381004D
:1003B000109285001092840008958091840090919D
:1003C00085000895AC0180918400909185009C0186
:1003D000241B350B283E3340B0F70895209184004C
:1003E00030918500820F931F0C94E2010E946200FD
:1003F0000E947E0084E690E00E94A9010E94A8016C
:10040000BB24B39493E0A92EC1E022E0822ED0E079
:10041000912C32E0E32EF12C43E0C42ED12C01E0EC
:1004200010E00E94BE01DA3051F583E0B81210C02E
:1004300086E08A1508F10E941F03B6010E94680237
:10044000B801681B790B8C2F0E945F02C82F14C063
:1004500084E0B81661F0B1100FC0CF3F69F40E947C
:100460001F03B7010E946802C1E0C80F05C0812CBC
:1004700083E0A82EB12CC0E0A80CBC0ED0E00E94F6
:100480003C0180E00E940A01811103C082E00E94C9
:100490000A01911008C064E0809100010E94A00050
:1004A000992493940AC06B2D802F0A2C01C0880FC9
:1004B0000A94EAF70E94A000912CDF5FB2CF0024DB
:1004C00080FD060E660F11F08695D1F7802D0895F8
:1004D00097FB072E16F4009407D077FD09D00E94F1
:1004E0009B0207FC05D03EF4909581959F4F08959F
:1004F000709561957F4F0895052E97FB1EF400942B
:100500000E94930257FD07D00E94AF0207FC03D060
:100510004EF40C94930250954095309521953F4FA1
:100520004F4F5F4F089590958095709561957F4FDF
:100530008F4F9F4F0895AA1BBB1B51E107C0AA1FF5
:10054000BB1FA617B70710F0A61BB70B881F991F74
:100550005A95A9F780959095BC01CD010895A1E227
:100560001A2EAA1BBB1BFD010DC0AA1FBB1FEE1F2D
:10057000FF1FA217B307E407F50720F0A21BB30B78
:10058000E40BF50B661F771F881F991F1A9469F7F4
:1005900060957095809590959B01AC01BD01CF0150
:1005A00008958F929F92AF92BF92CF92DF92EF9277
:1005B000FF92CF93DF93EC01688179818A819B81DF
:1005C000611571058105910521F464E279ED8BE5F2
:1005D00097E02DE133EF41E050E00E947C024901B9
:1005E0005A0127EA31E440E050E00E942F036B01FA
:1005F0007C012CEE34EF4FEF5FEFC501B4010E9498
:100600002F03DC01CB018C0D9D1DAE1DBF1DB7FF5F
:1006100003C00197A109B04888839983AA83BB834B
:100620009F77DF91CF91FF90EF90DF90CF90BF90B9
:10063000AF909F908F9008950E94D102089583E01B
:1006400091E00E94D1020895A0E0B0E08093030100
:1006500090930401A0930501B09306010895EE273D
:10066000FF27AA27BB2708C0A20FB31FE41FF51F4F
:10067000220F331F441F551F9695879577956795D1
:1006800098F37040A9F7009799F7BD01CF0108953D
:04069000F894FFCF0C
:100694007F01010100000003400080031003800378
:1006A40020004000200010000800040002000103A4
:0A06B40080034003200080031000C3
:00000001FF
