:100000000C943A000C9457000C9457000C94570031
:100010000C9457000C9457000C9457000C94570004
:100020000C9457000C9457000C9457000C945700F4
:100030000C9457000C9457000C9457000C945700E4
:100040000C9457000C9457000C9457000C945700D4
:100050000C9457000C9457000C9457000C945700C4
:100060000C9457000C9457000C9457000C945700B4
:100070000C94570011241FBECFEFD4E0DEBFCDBFDC
:1000800011E0A0E0B1E0ECE4F6E002C005900D92D2
:10009000A632B107D9F721E0A6E2B1E001C01D9276
:1000A000A533B207E1F70E94B8020C9424030C9424
:1000B000000068170CF4682F862F089568170CF459
:1000C000862F0895E1E6F0E080E880831082A8950D
:1000D00084B7877F84BFE0E6F0E080818861808319
:1000E000108208959C01FC01FF2784A1832B84A327
:1000F00095A1892F832B85A381E00895CF93DF936A
:10010000CDE0D1E0899199910E94720081E0CB31DC
:10011000D807C1F783E090E40E94720080E090E885
:100120000E94720083E090E10E94720083E090E8F8
:100130000E94720083E090E2DF91CF910C947200F4
:10014000E0912601F0E0EE0FFF1FED5FFE4F2081F2
:100150003181F901FF2795A1932B95A3EDE0F1E003
:1001600097E020813181D901BB2795962C919597F5
:1001700080FF03C03095232301C0232B95962C9339
:100180008695915032969111ECCFE62FF0E0EE0F6C
:10019000FF1FED5FFE4F80819181FC01FF2785A14C
:1001A0009095892385A36093260108956230710597
:1001B00019F170F46130710559F5FC01FF2724A194
:1001C000392F3095922F932394A385A183231DC0AB
:1001D0006330710541F064307105D1F4FC01FF27F3
:1001E00084A1892B0FC0FC01FF2784A1892B84A344
:1001F00085A19095892309C0FC01FF2784A1292F9F
:100200002095822384A385A1892B85A381E008956D
:1002100080E00895E82FF0E0EE0FFF1FE95DFE4F4C
:100220008081882321F0918181E0892702C080E0CC
:1002300090E081700895E82FF0E0EE0FFF1FE95D78
:10024000FE4F8081811102C0818102C080E090E078
:1002500081700895E82FF0E0EE0FFF1FE95DFE4F7B
:1002600080810895E82FF0E0EE0FFF1FE95DFE4F5B
:10027000908181E0892708957F928F929F92AF921B
:10028000BF92CF92DF92EF92FF920F931F93CF9383
:10029000DF93C7E2D1E05BE1C52E51E0D52E66E0E9
:1002A000762E88818983F601019111916F015801A1
:1002B000BB24F50124A1E12EFF2485A190E08E212D
:1002C0009F2130E02E213F21232B31F0892B51F447
:1002D00033E0832E912C0DC0892B41F48824839424
:1002E000912C07C094E0892E912C03C082E0882EC7
:1002F000912C64E070E0C8010E94D60062E070E0DA
:10030000C8010E94D600872D8A95F1F7F50183A1D7
:1003100090E0E822F92281E0EF2809F080E088836C
:10032000B401C8010E94D6002296F1E0C133DF0774
:1003300009F0B7CFDF91CF911F910F91FF90EF9010
:10034000DF90CF90BF90AF909F908F907F90089557
:100350000895CF93DF93EC010E94D3019E0140E00A
:1003600050E062E17AE780E090E00E94E30230939F
:10037000340120933301DF91CF91089580913101B1
:10038000909132010E94E2012091310130913201BD
:100390008091330190913401820F931F9093320129
:1003A0008093310108951092800084E08093810051
:1003B000109285001092840008958091840090919D
:1003C00085000895AC0180918400909185009C0186
:1003D000241B350B283E3340B0F70895209184004C
:1003E00030918500820F931F0C94E201811104C0AB
:1003F00080E090E037E412C080E090E034E242E236
:100400008617970751F0589A232F2A95F1F7589895
:10041000242F2A95F1F70196F3CF089586179707B1
:1004200029F0232F2A95F1F70196F8CF089589B185
:1004300082FB882780F991E089270895509A58987F
:10044000539A5B9852985A9808951F93CF93DF93CD
:10045000182F64E570E081E00E94F60165E170E02C
:1004600080E00E94F601C8E0D0E010FD03C065E125
:1004700070E002C06AE270E081E00E94F60165E18E
:1004800070E080E00E94F6011695219771F765E112
:1004900070E080E0DF91CF911F910C94F601BF9244
:1004A000CF92DF92EF92FF920F931F93CF93DF9340
:1004B0006C010E941702882309F443C00FE011E089
:1004C000CAE10E941702882341F00150110909F482
:1004D0003BC08C2F8A95F1F7F4CF88E0E82EF12C01
:1004E000D0E0C0E09AE1B92EC6950BE510E00E947D
:1004F0001702811107C00150110949F18B2D8A950E
:10050000F1F7F5CF00E010E00E941702882351F0C8
:100510008B2D8A95F1F70F5F1F4F06391105A1F753
:10052000D1E003C00B3411050CF0C06881E0E81A7B
:10053000F108D1F6F601C083D1110CC081E090E042
:100540000BC080E090E008C08FEF9FEF05C08DEFFB
:100550009FEF02C08EEF9FEFDF91CF911F910F9120
:10056000FF90EF90DF90CF90BF9008950C941E0203
:10057000CF93DF931F92CDB7DEB70E9462000E9437
:100580007E0084E690E00E94A9010E94A8010E94DA
:100590003C0184E00E940A01882341F005E010E05C
:1005A00081E00E94250201501109D1F7CE01019688
:1005B0000E944F02813059F78981813041F782E0F2
:1005C0000E942502E4CF052E97FB1EF400940E94A2
:1005D000FA0257FD07D00E94020307FC03D04EF435
:1005E0000C94FA0250954095309521953F4F4F4F0E
:1005F0005F4F089590958095709561957F4F8F4FCF
:100600009F4F0895A1E21A2EAA1BBB1BFD010DC02E
:10061000AA1FBB1FEE1FFF1FA217B307E407F507B2
:1006200020F0A21BB30BE40BF50B661F771F881F8E
:10063000991F1A9469F760957095809590959B0124
:0C064000AC01BD01CF010895F894FFCF7C
:10064C007F01010340008003100380032000400061
:10065C002000100008000400020001038003400386
:06066C00200080031000D5
:00000001FF
