:100000000C943A000C9457000C9457000C94570031
:100010000C9457000C9457000C9457000C94570004
:100020000C9457000C9457000C9457000C945700F4
:100030000C9457000C9457000C9457000C945700E4
:100040000C9457000C9457000C9457000C945700D4
:100050000C9457000C9457000C9457000C945700C4
:100060000C9457000C9457000C9457000C945700B4
:100070000C94570011241FBECFEFD4E0DEBFCDBFDC
:1000800013E0A0E0B1E0E4EEFCE002C005900D92C8
:10009000A833B107D9F723E0A8E3B3E001C01D926C
:1000A000AF34B207E1F70E94B8050C9470060C94C7
:1000B000000068170CF4682F862F089568170CF459
:1000C000862F0895CF93DF9300D0CDB7DEB7898315
:1000D0001A82CE0101960E9471040F900F90DF9159
:1000E000CF910895E1E6F0E080E880831082A89542
:1000F00084B7877F84BFE0E6F0E0808188618083F9
:10010000108208959C01FC01FF2784A1832B84A306
:1001100095A1892F832B85A381E00895CF93DF9349
:10012000CFE1D3E0899199910E94820083E0CD32A2
:10013000D807C1F783E090E40E94820080E090E855
:100140000E94820083E090E10E94820083E090E8B8
:100150000E94820083E090E2DF91CF910C948200B4
:10016000E0913803F0E0EE0FFF1FEB5EFC4F2081C3
:100170003181F901FF2795A1932B95A3EFE1F3E0DE
:1001800097E020813181D901BB2795962C919597D5
:1001900080FF03C03095232301C0232B95962C9319
:1001A0008695915032969111ECCFE62FF0E0EE0F4C
:1001B000FF1FEB5EFC4F80819181FC01FF2785A131
:1001C0009095892385A36093380308956230710563
:1001D00019F170F46130710559F5FC01FF2724A174
:1001E000392F3095922F932394A385A183231DC08B
:1001F0006330710541F064307105D1F4FC01FF27D3
:1002000084A1892B0FC0FC01FF2784A1892B84A323
:1002100085A19095892309C0FC01FF2784A1292F7E
:100220002095822384A385A1892B85A381E008954D
:1002300080E00895E82FF0E0EE0FFF1FE75CFC4F31
:100240008081882321F0918181E0892702C080E0AC
:1002500090E081700895E82FF0E0EE0FFF1FE75C5B
:10026000FC4F8081811102C0818102C080E090E05A
:1002700081700895E82FF0E0EE0FFF1FE75CFC4F60
:1002800080810895E82FF0E0EE0FFF1FE75CFC4F40
:10029000908181E0892708957F928F929F92AF92FB
:1002A000BF92CF92DF92EF92FF920F931F93CF9363
:1002B000DF93C9E3D3E05DE2C52E53E0D52E66E0BF
:1002C000762E88818983F601019111916F01580181
:1002D000BB24F50124A1E12EFF2485A190E08E210D
:1002E0009F2130E02E213F21232B31F0892B51F427
:1002F00033E0832E912C0DC0892B41F48824839404
:10030000912C07C094E0892E912C03C082E0882EA6
:10031000912C64E070E0C8010E94E60062E070E0A9
:10032000C8010E94E600872D8A95F1F7F50183A1A7
:1003300090E0E822F92281E0EF2809F080E088834C
:10034000B401C8010E94E6002296F3E0C334DF073F
:1003500009F0B7CFDF91CF911F910F91FF90EF90F0
:10036000DF90CF90BF90AF909F908F907F90089537
:100370000895CF93DF93EC010E94E3019E0140E0DA
:1003800050E062E17AE780E090E00E94200630933E
:10039000460320934503DF91CF9108958091430355
:1003A000909144030E94F201209143033091440351
:1003B0008091450390914603820F931F90934403CD
:1003C0008093430308951092800084E0809381001D
:1003D000109285001092840008958091840090917D
:1003E00085000895AC0180918400909185009C0166
:1003F000241B350B283E3340B0F70895209184002C
:1004000030918500820F931F0C94F201811104C07A
:1004100080E090E037E412C080E090E034E242E215
:100420008617970751F0589A232F2A95F1F7589875
:10043000242F2A95F1F70196F3CF08958617970791
:1004400029F0232F2A95F1F70196F8CF089589B165
:1004500082FB882780F991E089270895509A58985F
:10046000539A5B9852985A9808951F93CF93DF93AD
:10047000182F64E570E081E00E94060265E170E0FB
:1004800080E00E940602C8E0D0E010FD03C065E1F4
:1004900070E002C06AE270E081E00E94060265E15D
:1004A00070E080E00E9406021695219771F765E1E1
:1004B00070E080E0DF91CF911F910C940602BF9213
:1004C000CF92DF92EF92FF920F931F93CF93DF9320
:1004D0006C010E942702882309F443C00FE011E059
:1004E000CAE10E942702882341F00150110909F452
:1004F0003BC08C2F8A95F1F7F4CF88E0E82EF12CE1
:10050000D0E0C0E09AE1B92EC6950BE510E00E945C
:100510002702811107C00150110949F18B2D8A95DD
:10052000F1F7F5CF00E010E00E942702882351F098
:100530008B2D8A95F1F70F5F1F4F06391105A1F733
:10054000D1E003C00B3411050CF0C06881E0E81A5B
:10055000F108D1F6F601C083D1110CC081E090E022
:100560000BC080E090E008C08FEF9FEF05C08DEFDB
:100570009FEF02C08EEF9FEFDF91CF911F910F9100
:10058000FF90EF90DF90CF90BF9008950C942E02D3
:10059000692F0C94840541E0611101C040E0692F8E
:1005A0000C946E050C94CB025F926F927F928F92A7
:1005B0009F92AF92BF92CF92DF92EF92FF920F93F2
:1005C0001F93CF93DF93562E872E942E5C01E62E39
:1005D000F72EC62F660FDD0BC81BD10987FDD395FB
:1005E000072F770F110B091B110997FD1395D7FFE3
:1005F00003C077247A9402C07724739417FF03C052
:1006000066246A9402C066246394D7FF03C0D19520
:10061000C195D10917FF03C0119501951109C017A4
:10062000D107A4F06E01D594C794F92EA51411F149
:10063000692D8A2D9F2D0E94CB02C01AD10AD7FEA8
:1006400003C0CC0EDD1EF60CA70CF0CF6801D594CC
:10065000C794E82EB81471F0692D8E2D9B2D0E9441
:10066000CB02CC1ADD0AD7FE03C0C00ED11EE70CA8
:10067000B60CF0CF692DC701DF91CF911F910F917B
:10068000FF90EF90DF90CF90BF90AF909F908F90B2
:100690007F906F905F900C94CB02FF920F931F930B
:1006A000CF93DF93D82FF92E162FC72F042F792F32
:1006B0000E94D402402F6D2F7C2F8D2F9F2D0E94E2
:1006C000D402402F612F7C2F812F9F2D0E94D402B6
:1006D000402F612F7C2F8D2F9C2F0E94D402DF9101
:1006E000CF911F910F91FF9008950E94AC05E3E018
:1006F000F1E0118A14860895DF92EF92FF920F9332
:100700001F93CF93DF93D82E7B01162F0F2D80914F
:10071000050190910601D0E0019799F50F2D0D1B71
:10072000E0910B01F0910C018181C0E0D817B8F481
:1007300080910B0190910C01FC012281C21768F499
:100740002C2F4D2F6D2D0E943605682F8E2D8C0F6E
:10075000902F0E94CB02CF5FEBCFDF5FDFCFE09126
:100760000B01F0910C018281C81740F460E08E2DDE
:100770008C0F902F0E94CB02CF5FF1CF015030C081
:10078000DF5F1E2D1D0FE0910B01F0910C018181A7
:10079000C0E0D817A8F480910B0190910C01FC01E6
:1007A0002281C21768F72C2F4D2F6D2D0E94360520
:1007B000682F812F9F2D9C0F0E94CB02CF5FEBCF24
:1007C000E0910B01F0910C018281C81740F460E0C8
:1007D000812F9F2D9C0F0E94CB02CF5FF1CF1F5F17
:1007E000812F902FDF91CF911F910F91FF90EF906C
:1007F000DF9008950F931F93CF938C01C0E0F80111
:1008000081918F01882341F00E947C03BC01CF5F5E
:10081000853014F477FFF3CF8C2FCF911F910F9178
:1008200008950F931F93CF93DF9310920F0140937E
:1008300010011092130100910B0110910C01011590
:10084000110509F449C09B01EC01F8018181609117
:10085000090170910A0190E00E94FB05BC018091A2
:100860000D0190910E010E940C06CB016AE070E030
:100870000E94FB05909312018093110130930801AF
:100880002093070140E250E0BE0184E191E00E9424
:10089000610680910301909104010197E9F4FE0142
:1008A00001900020E9F73197BF016C1B7D0BF80127
:1008B00081818F5F0E94F205815020910501309166
:1008C00006012130310511F095E001C097E098173D
:1008D00018F48EEF80931301DF91CF911F910F9148
:1008E000089520910501309106012130310511F064
:1008F00070E001C076E04FEF60E00E9411040895BF
:1009000090E090930A018093090108959093040167
:100910008093030108959093060180930501089543
:1009200090930C0180930B0108958091470390915F
:100930004803019690934803809347032091110147
:10094000309112018217930708F469C0109248038E
:1009500010924703E0910F01F0E0ED5FFE4F8189B7
:1009600081110AC080911001823008F458C0815072
:100970008093100110920F0180910F0190E0FC0113
:10098000ED5FFE4F2189222309F449C04091030104
:1009900050910401209113014115510521F041307E
:1009A000510599F024C0211122C060910701709176
:1009B00008018C5E9E4F0E94FA0390E0019790918F
:1009C0000F01890F80930F0112C060910701709190
:1009D000080140910501509106014130510511F483
:1009E000720F01C0621B8C5E9E4F0E94FA038091C1
:1009F00013018F5F80931301082E000C990BE09177
:100A00000B01F0910C01218130E0281739073CF4EB
:100A10001092130180910F018F5F80930F010C944E
:100A20009805CF93DF93C3E0D1E09B878A870E942C
:100A3000B40584E190E09F838E83DF91CF910C9485
:100A40007503009789F0FC012381621B67FD09C0D3
:100A5000062E000C770B248130E081E062177307CB
:100A60000CF080E08170089580E00895CF93DF93CB
:100A7000FC01892B79F18181481760F59281291752
:100A800048F59381A62FA91BA7FD24C00A2E000CB0
:100A9000BB0BC481D0E0AC17BD07E4F4622F0E9409
:100AA000F205480F858190E0BD010E94FB05069686
:100AB000242F269526952695E80FF91FE20FF11DA4
:100AC000808190E0477002C0959587954A95E2F73E
:100AD000817001C080E0DF91CF910895853098F456
:100AE000673088F421E030E001C0220F6A95EAF710
:100AF000E82FF0E0E65BFC4F922F909580818923F0
:100B00004111822B80830895853080F4673070F422
:100B100021E030E001C0220F6A95EAF7E82FF0E00B
:100B2000E65BFC4F8081282381E009F480E0089592
:100B300060914903E62FF0E0E65BFC4F80810E9464
:100B4000B000809149038F5F853018F4809349038A
:100B50000895109249030895EAE4F3E010821182A7
:100B600012821382148208950E948E000C94AC05A8
:100B7000CF93DF931F92CDB7DEB70E9472000E9421
:100B80008E0084E690E00E94B9010E94B80184EFD3
:100B900091E00E94110584E391E00E9490048AE0B4
:100BA0000E9480040E944C0184E00E941A01882364
:100BB00041F005E010E081E00E943502015011098A
:100BC000D1F7CE0101960E945F02813059F78981E9
:100BD000805D0E9462008981813021F782E00E945D
:100BE0003502E0CF002480FD060E660F11F08695D9
:100BF000D1F7802D08950024552704C0080E591FF1
:100C0000880F991F009729F076956795B8F37105BD
:100C1000B9F7802D952F0895AA1BBB1B51E107C082
:100C2000AA1FBB1FA617B70710F0A61BB70B881F7C
:100C3000991F5A95A9F780959095BC01CD0108950B
:100C4000052E97FB1EF400940E94370657FD07D02F
:100C50000E943F0607FC03D04EF40C9437065095D3
:100C60004095309521953F4F4F4F5F4F0895909598
:100C70008095709561957F4F8F4F9F4F0895A1E2AA
:100C80001A2EAA1BBB1BFD010DC0AA1FBB1FEE1F06
:100C9000FF1FA217B307E407F50720F0A21BB30B51
:100CA000E40BF50B661F771F881F991F1A9469F7CD
:100CB00060957095809590959B01AC01BD01CF0129
:100CC0000895FB01DC014150504048F001900D9225
:100CD0000020C9F701C01D9241505040E0F708952F
:040CE000F894FFCFB6
:100CE4007F0101000000000000140000000000006B
:100CF40000000000000000000000000000000000F0
:100D040000000000000000000000000000000000DF
:100D140000000000010507205F050000000000C678
:100D2400186380014A290000004A7DF59502C41722
:100D3400471F0163222232062615519305860800B7
:100D44000000880821080282208488008054570902
:100D54000080904F0800000060880000800F0000B1
:100D64000000008C0100222202002EE63AA303C4F4
:100D7400104288032E4244C4072E4207A30388A9C5
:100D8400F411023F8407A3032E8617A3033F4244B2
:100D940008012E4617A3032E460FA303C018600CA8
:100DA40000C0186088008888200802007CF00100D8
:100DB40082208888002E424400012E425BAB03440B
:100DC400C51F63042FC617E3032E8610A2032FC684
:100DD40018E3033F8417C2073F841742002E861E80
:100DE400A30731C61F63048E10428803104218A360
:100DF400033195515204218410C20771D71A630438
:100E040071D61C63042EC618A3032FC61742002EE6
:100E1400C65893052FC61763042E0607A3039F1015
:100E240042080131C618A30331C618150131C65A48
:100E3400AB02312AA26204312A4208011F2222C2D3
:100E440007278410C20120088220000E2184900309
:100E54004445000000000000C0078220000000009C
:100E640038E8A30721B419E30300B810A20310DA89
:100E74001CA30700B8F883034C8A238400C0C7E886
:100E8400A10321B41963040418428803083084922E
:100E94000121A4324A02861042880300AC5A63043A
:100EA40000B419630400B818A30300BCF84200009E
:100EB400D8EC210400B419420000B8E0E003421C5D
:100EC40021240300C418B30500C418150100C45A32
:100ED400AB02004445540400C4E8A103007C44C4AC
:100EE40007881041080284104208018210448800D7
:100EF40000888A0000034000800310038003200060
:100F040040002000100008000400020001038003D8
:080F14004003200080031000DF
:00000001FF
